{
  "_format": "hh-sol-artifact-1",
  "contractName": "EscrowAndFundsDistribution",
  "sourceName": "contracts/EscrowAndFundsDistribution .sol",
  "abi": [
    {
      "inputs": [],
      "stateMutability": "nonpayable",
      "type": "constructor"
    },
    {
      "anonymous": false,
      "inputs": [
        {
          "indexed": true,
          "internalType": "address",
          "name": "depositor",
          "type": "address"
        },
        {
          "indexed": false,
          "internalType": "uint256",
          "name": "amount",
          "type": "uint256"
        }
      ],
      "name": "DepositMade",
      "type": "event"
    },
    {
      "anonymous": false,
      "inputs": [
        {
          "indexed": true,
          "internalType": "address",
          "name": "recipient",
          "type": "address"
        },
        {
          "indexed": false,
          "internalType": "uint256",
          "name": "amount",
          "type": "uint256"
        }
      ],
      "name": "FundsDisbursed",
      "type": "event"
    },
    {
      "anonymous": false,
      "inputs": [
        {
          "indexed": true,
          "internalType": "address",
          "name": "investor",
          "type": "address"
        },
        {
          "indexed": false,
          "internalType": "uint256",
          "name": "amount",
          "type": "uint256"
        }
      ],
      "name": "FundsReturned",
      "type": "event"
    },
    {
      "inputs": [],
      "name": "deposit",
      "outputs": [],
      "stateMutability": "payable",
      "type": "function"
    },
    {
      "inputs": [
        {
          "internalType": "address",
          "name": "",
          "type": "address"
        }
      ],
      "name": "deposits",
      "outputs": [
        {
          "internalType": "uint256",
          "name": "",
          "type": "uint256"
        }
      ],
      "stateMutability": "view",
      "type": "function"
    },
    {
      "inputs": [
        {
          "internalType": "address payable",
          "name": "recipient",
          "type": "address"
        },
        {
          "internalType": "uint256",
          "name": "amount",
          "type": "uint256"
        }
      ],
      "name": "disburse",
      "outputs": [],
      "stateMutability": "nonpayable",
      "type": "function"
    },
    {
      "inputs": [],
      "name": "getBalance",
      "outputs": [
        {
          "internalType": "uint256",
          "name": "",
          "type": "uint256"
        }
      ],
      "stateMutability": "view",
      "type": "function"
    },
    {
      "inputs": [],
      "name": "owner",
      "outputs": [
        {
          "internalType": "address",
          "name": "",
          "type": "address"
        }
      ],
      "stateMutability": "view",
      "type": "function"
    },
    {
      "inputs": [
        {
          "internalType": "address payable",
          "name": "investor",
          "type": "address"
        }
      ],
      "name": "returnFunds",
      "outputs": [],
      "stateMutability": "nonpayable",
      "type": "function"
    }
  ],
  "bytecode": "0x608060405234801561001057600080fd5b50336000806101000a81548173ffffffffffffffffffffffffffffffffffffffff021916908373ffffffffffffffffffffffffffffffffffffffff160217905550610c02806100606000396000f3fe6080604052600436106100555760003560e01c806312065fe01461005a5780637f3bd56e146100855780638da5cb5b146100ae57806397fa14e3146100d9578063d0e30db014610102578063fc7e286d1461010c575b600080fd5b34801561006657600080fd5b5061006f610149565b60405161007c91906106c4565b60405180910390f35b34801561009157600080fd5b506100ac60048036038101906100a7919061076e565b610151565b005b3480156100ba57600080fd5b506100c3610393565b6040516100d091906107cf565b60405180910390f35b3480156100e557600080fd5b5061010060048036038101906100fb91906107ea565b6103b7565b005b61010a6105aa565b005b34801561011857600080fd5b50610133600480360381019061012e9190610843565b610693565b60405161014091906106c4565b60405180910390f35b600047905090565b60008054906101000a900473ffffffffffffffffffffffffffffffffffffffff1673ffffffffffffffffffffffffffffffffffffffff163373ffffffffffffffffffffffffffffffffffffffff16146101df576040517f08c379a00000000000000000000000000000000000000000000000000000000081526004016101d6906108f3565b60405180910390fd5b80471015610222576040517f08c379a000000000000000000000000000000000000000000000000000000000815260040161021990610985565b60405180910390fd5b80600160008473ffffffffffffffffffffffffffffffffffffffff1673ffffffffffffffffffffffffffffffffffffffff1681526020019081526020016000205410156102a4576040517f08c379a000000000000000000000000000000000000000000000000000000000815260040161029b90610a17565b60405180910390fd5b80600160008473ffffffffffffffffffffffffffffffffffffffff1673ffffffffffffffffffffffffffffffffffffffff16815260200190815260200160002060008282546102f39190610a66565b925050819055508173ffffffffffffffffffffffffffffffffffffffff166108fc829081150290604051600060405180830381858888f19350505050158015610340573d6000803e3d6000fd5b508173ffffffffffffffffffffffffffffffffffffffff167f782e29f84677015232f6d7f6802ffa1526db4d9800d3bdc9516a111f240e80868260405161038791906106c4565b60405180910390a25050565b60008054906101000a900473ffffffffffffffffffffffffffffffffffffffff1681565b60008054906101000a900473ffffffffffffffffffffffffffffffffffffffff1673ffffffffffffffffffffffffffffffffffffffff163373ffffffffffffffffffffffffffffffffffffffff1614610445576040517f08c379a000000000000000000000000000000000000000000000000000000000815260040161043c906108f3565b60405180910390fd5b6000600160008373ffffffffffffffffffffffffffffffffffffffff1673ffffffffffffffffffffffffffffffffffffffff168152602001908152602001600020549050600081116104cc576040517f08c379a00000000000000000000000000000000000000000000000000000000081526004016104c390610ae6565b60405180910390fd5b6000600160008473ffffffffffffffffffffffffffffffffffffffff1673ffffffffffffffffffffffffffffffffffffffff168152602001908152602001600020819055508173ffffffffffffffffffffffffffffffffffffffff166108fc829081150290604051600060405180830381858888f19350505050158015610557573d6000803e3d6000fd5b508173ffffffffffffffffffffffffffffffffffffffff167fd7289cb4bb1d80932416fb1a5e3130055c190f63290d5762ff0389a3163b6e8a8260405161059e91906106c4565b60405180910390a25050565b600034116105ed576040517f08c379a00000000000000000000000000000000000000000000000000000000081526004016105e490610b78565b60405180910390fd5b34600160003373ffffffffffffffffffffffffffffffffffffffff1673ffffffffffffffffffffffffffffffffffffffff168152602001908152602001600020600082825461063c9190610b98565b925050819055503373ffffffffffffffffffffffffffffffffffffffff167fd15c9547ea5c06670c0010ce19bc32d54682a4b3801ece7f3ab0c3f17106b4bb3460405161068991906106c4565b60405180910390a2565b60016020528060005260406000206000915090505481565b6000819050919050565b6106be816106ab565b82525050565b60006020820190506106d960008301846106b5565b92915050565b600080fd5b600073ffffffffffffffffffffffffffffffffffffffff82169050919050565b600061070f826106e4565b9050919050565b61071f81610704565b811461072a57600080fd5b50565b60008135905061073c81610716565b92915050565b61074b816106ab565b811461075657600080fd5b50565b60008135905061076881610742565b92915050565b60008060408385031215610785576107846106df565b5b60006107938582860161072d565b92505060206107a485828601610759565b9150509250929050565b60006107b9826106e4565b9050919050565b6107c9816107ae565b82525050565b60006020820190506107e460008301846107c0565b92915050565b600060208284031215610800576107ff6106df565b5b600061080e8482850161072d565b91505092915050565b610820816107ae565b811461082b57600080fd5b50565b60008135905061083d81610817565b92915050565b600060208284031215610859576108586106df565b5b60006108678482850161082e565b91505092915050565b600082825260208201905092915050565b7f4f6e6c79206f776e65722063616e2063616c6c20746869732066756e6374696f60008201527f6e2e000000000000000000000000000000000000000000000000000000000000602082015250565b60006108dd602283610870565b91506108e882610881565b604082019050919050565b6000602082019050818103600083015261090c816108d0565b9050919050565b7f496e73756666696369656e742062616c616e636520696e20636f6e747261637460008201527f2e00000000000000000000000000000000000000000000000000000000000000602082015250565b600061096f602183610870565b915061097a82610913565b604082019050919050565b6000602082019050818103600083015261099e81610962565b9050919050565b7f496e73756666696369656e74206465706f73697420746f20646973627572736560008201527f2e00000000000000000000000000000000000000000000000000000000000000602082015250565b6000610a01602183610870565b9150610a0c826109a5565b604082019050919050565b60006020820190508181036000830152610a30816109f4565b9050919050565b7f4e487b7100000000000000000000000000000000000000000000000000000000600052601160045260246000fd5b6000610a71826106ab565b9150610a7c836106ab565b9250828203905081811115610a9457610a93610a37565b5b92915050565b7f4e6f2066756e647320746f2072657475726e2e00000000000000000000000000600082015250565b6000610ad0601383610870565b9150610adb82610a9a565b602082019050919050565b60006020820190508181036000830152610aff81610ac3565b9050919050565b7f4465706f73697420616d6f756e74206d7573742062652067726561746572207460008201527f68616e207a65726f2e0000000000000000000000000000000000000000000000602082015250565b6000610b62602983610870565b9150610b6d82610b06565b604082019050919050565b60006020820190508181036000830152610b9181610b55565b9050919050565b6000610ba3826106ab565b9150610bae836106ab565b9250828201905080821115610bc657610bc5610a37565b5b9291505056fea2646970667358221220d1171b184898b764bb1b6c516c109c2ccd2d80b925b379b9612dd11a273f4e3a64736f6c63430008150033",
  "linkReferences": {},
  "deployedLinkReferences": {}
}