{
  "_format": "hh-sol-artifact-1",
  "contractName": "ExtensionOfficerReporting",
  "sourceName": "contracts/ExtensionOfficerReporting.sol",
  "abi": [
    {
      "inputs": [],
      "stateMutability": "nonpayable",
      "type": "constructor"
    },
    {
      "anonymous": false,
      "inputs": [
        {
          "indexed": true,
          "internalType": "uint256",
          "name": "projectId",
          "type": "uint256"
        },
        {
          "indexed": false,
          "internalType": "string",
          "name": "alertMessage",
          "type": "string"
        }
      ],
      "name": "AlertBroadcasted",
      "type": "event"
    },
    {
      "anonymous": false,
      "inputs": [
        {
          "indexed": false,
          "internalType": "address",
          "name": "officer",
          "type": "address"
        }
      ],
      "name": "ExtensionOfficerAdded",
      "type": "event"
    },
    {
      "anonymous": false,
      "inputs": [
        {
          "indexed": false,
          "internalType": "address",
          "name": "officer",
          "type": "address"
        }
      ],
      "name": "ExtensionOfficerRemoved",
      "type": "event"
    },
    {
      "anonymous": false,
      "inputs": [
        {
          "indexed": true,
          "internalType": "uint256",
          "name": "projectId",
          "type": "uint256"
        },
        {
          "indexed": false,
          "internalType": "string",
          "name": "reportContent",
          "type": "string"
        }
      ],
      "name": "ReportSubmitted",
      "type": "event"
    },
    {
      "inputs": [
        {
          "internalType": "address",
          "name": "officer",
          "type": "address"
        }
      ],
      "name": "addExtensionOfficer",
      "outputs": [],
      "stateMutability": "nonpayable",
      "type": "function"
    },
    {
      "inputs": [
        {
          "internalType": "uint256",
          "name": "",
          "type": "uint256"
        }
      ],
      "name": "alerts",
      "outputs": [
        {
          "internalType": "string",
          "name": "",
          "type": "string"
        }
      ],
      "stateMutability": "view",
      "type": "function"
    },
    {
      "inputs": [
        {
          "internalType": "uint256",
          "name": "projectId",
          "type": "uint256"
        },
        {
          "internalType": "string",
          "name": "alertMessage",
          "type": "string"
        }
      ],
      "name": "broadcastAlert",
      "outputs": [],
      "stateMutability": "nonpayable",
      "type": "function"
    },
    {
      "inputs": [
        {
          "internalType": "uint256",
          "name": "projectId",
          "type": "uint256"
        }
      ],
      "name": "getAlert",
      "outputs": [
        {
          "internalType": "string",
          "name": "",
          "type": "string"
        }
      ],
      "stateMutability": "view",
      "type": "function"
    },
    {
      "inputs": [
        {
          "internalType": "uint256",
          "name": "projectId",
          "type": "uint256"
        }
      ],
      "name": "getReport",
      "outputs": [
        {
          "internalType": "string",
          "name": "",
          "type": "string"
        }
      ],
      "stateMutability": "view",
      "type": "function"
    },
    {
      "inputs": [
        {
          "internalType": "address",
          "name": "",
          "type": "address"
        }
      ],
      "name": "isExtensionOfficer",
      "outputs": [
        {
          "internalType": "bool",
          "name": "",
          "type": "bool"
        }
      ],
      "stateMutability": "view",
      "type": "function"
    },
    {
      "inputs": [],
      "name": "owner",
      "outputs": [
        {
          "internalType": "address",
          "name": "",
          "type": "address"
        }
      ],
      "stateMutability": "view",
      "type": "function"
    },
    {
      "inputs": [
        {
          "internalType": "uint256",
          "name": "",
          "type": "uint256"
        }
      ],
      "name": "projectReports",
      "outputs": [
        {
          "internalType": "string",
          "name": "",
          "type": "string"
        }
      ],
      "stateMutability": "view",
      "type": "function"
    },
    {
      "inputs": [
        {
          "internalType": "address",
          "name": "officer",
          "type": "address"
        }
      ],
      "name": "removeExtensionOfficer",
      "outputs": [],
      "stateMutability": "nonpayable",
      "type": "function"
    },
    {
      "inputs": [
        {
          "internalType": "uint256",
          "name": "projectId",
          "type": "uint256"
        },
        {
          "internalType": "string",
          "name": "reportContent",
          "type": "string"
        }
      ],
      "name": "submitReport",
      "outputs": [],
      "stateMutability": "nonpayable",
      "type": "function"
    }
  ],
  "bytecode": "0x608060405234801561001057600080fd5b50336000806101000a81548173ffffffffffffffffffffffffffffffffffffffff021916908373ffffffffffffffffffffffffffffffffffffffff16021790555061123d806100606000396000f3fe608060405234801561001057600080fd5b506004361061009e5760003560e01c80639003045711610066578063900304571461018157806399c143bb1461019d578063ac4eafaf146101b9578063e6ef1e30146101d5578063ef4e2a62146101f15761009e565b8063171d073a146100a35780634e7f9b19146100d35780636fde0bea1461010357806385081886146101335780638da5cb5b14610163575b600080fd5b6100bd60048036038101906100b891906109d2565b610221565b6040516100ca9190610a8f565b60405180910390f35b6100ed60048036038101906100e891906109d2565b6102c1565b6040516100fa9190610a8f565b60405180910390f35b61011d60048036038101906101189190610b0f565b610366565b60405161012a9190610b57565b60405180910390f35b61014d600480360381019061014891906109d2565b610386565b60405161015a9190610a8f565b60405180910390f35b61016b61042b565b6040516101789190610b81565b60405180910390f35b61019b60048036038101906101969190610cd1565b61044f565b005b6101b760048036038101906101b29190610cd1565b61057c565b005b6101d360048036038101906101ce9190610b0f565b6106a9565b005b6101ef60048036038101906101ea9190610b0f565b6107c9565b005b61020b600480360381019061020691906109d2565b6108e8565b6040516102189190610a8f565b60405180910390f35b6003602052806000526040600020600091509050805461024090610d5c565b80601f016020809104026020016040519081016040528092919081815260200182805461026c90610d5c565b80156102b95780601f1061028e576101008083540402835291602001916102b9565b820191906000526020600020905b81548152906001019060200180831161029c57829003601f168201915b505050505081565b60606002600083815260200190815260200160002080546102e190610d5c565b80601f016020809104026020016040519081016040528092919081815260200182805461030d90610d5c565b801561035a5780601f1061032f5761010080835404028352916020019161035a565b820191906000526020600020905b81548152906001019060200180831161033d57829003601f168201915b50505050509050919050565b60016020528060005260406000206000915054906101000a900460ff1681565b60606003600083815260200190815260200160002080546103a690610d5c565b80601f01602080910402602001604051908101604052809291908181526020018280546103d290610d5c565b801561041f5780601f106103f45761010080835404028352916020019161041f565b820191906000526020600020905b81548152906001019060200180831161040257829003601f168201915b50505050509050919050565b60008054906101000a900473ffffffffffffffffffffffffffffffffffffffff1681565b600160003373ffffffffffffffffffffffffffffffffffffffff1673ffffffffffffffffffffffffffffffffffffffff16815260200190815260200160002060009054906101000a900460ff166104db576040517f08c379a00000000000000000000000000000000000000000000000000000000081526004016104d290610dff565b60405180910390fd5b600081511161051f576040517f08c379a000000000000000000000000000000000000000000000000000000000815260040161051690610e6b565b60405180910390fd5b8060026000848152602001908152602001600020908161053f9190611037565b50817f7ae3f1a31ce70d10f9e53cd62b8e20cb7c7144ad3ca92b54731ad7669689c1e6826040516105709190610a8f565b60405180910390a25050565b600160003373ffffffffffffffffffffffffffffffffffffffff1673ffffffffffffffffffffffffffffffffffffffff16815260200190815260200160002060009054906101000a900460ff16610608576040517f08c379a00000000000000000000000000000000000000000000000000000000081526004016105ff90610dff565b60405180910390fd5b600081511161064c576040517f08c379a000000000000000000000000000000000000000000000000000000000815260040161064390611155565b60405180910390fd5b8060036000848152602001908152602001600020908161066c9190611037565b50817f086bb50b227c269d7fc3c542ab18da3161e242bc6cc9070d8020ac5a2fbbb36e8260405161069d9190610a8f565b60405180910390a25050565b60008054906101000a900473ffffffffffffffffffffffffffffffffffffffff1673ffffffffffffffffffffffffffffffffffffffff163373ffffffffffffffffffffffffffffffffffffffff1614610737576040517f08c379a000000000000000000000000000000000000000000000000000000000815260040161072e906111e7565b60405180910390fd5b6000600160008373ffffffffffffffffffffffffffffffffffffffff1673ffffffffffffffffffffffffffffffffffffffff16815260200190815260200160002060006101000a81548160ff0219169083151502179055507f862af974a1fd1fef7074b292c0e7cd88ae95eb4867081799215ffbd992d6a519816040516107be9190610b81565b60405180910390a150565b60008054906101000a900473ffffffffffffffffffffffffffffffffffffffff1673ffffffffffffffffffffffffffffffffffffffff163373ffffffffffffffffffffffffffffffffffffffff1614610857576040517f08c379a000000000000000000000000000000000000000000000000000000000815260040161084e906111e7565b60405180910390fd5b60018060008373ffffffffffffffffffffffffffffffffffffffff1673ffffffffffffffffffffffffffffffffffffffff16815260200190815260200160002060006101000a81548160ff0219169083151502179055507fd3d308be9ef2a73d5639757c4dbadae1e3ded0de90a61de72bd401e01ceb496f816040516108dd9190610b81565b60405180910390a150565b6002602052806000526040600020600091509050805461090790610d5c565b80601f016020809104026020016040519081016040528092919081815260200182805461093390610d5c565b80156109805780601f1061095557610100808354040283529160200191610980565b820191906000526020600020905b81548152906001019060200180831161096357829003601f168201915b505050505081565b6000604051905090565b600080fd5b600080fd5b6000819050919050565b6109af8161099c565b81146109ba57600080fd5b50565b6000813590506109cc816109a6565b92915050565b6000602082840312156109e8576109e7610992565b5b60006109f6848285016109bd565b91505092915050565b600081519050919050565b600082825260208201905092915050565b60005b83811015610a39578082015181840152602081019050610a1e565b60008484015250505050565b6000601f19601f8301169050919050565b6000610a61826109ff565b610a6b8185610a0a565b9350610a7b818560208601610a1b565b610a8481610a45565b840191505092915050565b60006020820190508181036000830152610aa98184610a56565b905092915050565b600073ffffffffffffffffffffffffffffffffffffffff82169050919050565b6000610adc82610ab1565b9050919050565b610aec81610ad1565b8114610af757600080fd5b50565b600081359050610b0981610ae3565b92915050565b600060208284031215610b2557610b24610992565b5b6000610b3384828501610afa565b91505092915050565b60008115159050919050565b610b5181610b3c565b82525050565b6000602082019050610b6c6000830184610b48565b92915050565b610b7b81610ad1565b82525050565b6000602082019050610b966000830184610b72565b92915050565b600080fd5b600080fd5b7f4e487b7100000000000000000000000000000000000000000000000000000000600052604160045260246000fd5b610bde82610a45565b810181811067ffffffffffffffff82111715610bfd57610bfc610ba6565b5b80604052505050565b6000610c10610988565b9050610c1c8282610bd5565b919050565b600067ffffffffffffffff821115610c3c57610c3b610ba6565b5b610c4582610a45565b9050602081019050919050565b82818337600083830152505050565b6000610c74610c6f84610c21565b610c06565b905082815260208101848484011115610c9057610c8f610ba1565b5b610c9b848285610c52565b509392505050565b600082601f830112610cb857610cb7610b9c565b5b8135610cc8848260208601610c61565b91505092915050565b60008060408385031215610ce857610ce7610992565b5b6000610cf6858286016109bd565b925050602083013567ffffffffffffffff811115610d1757610d16610997565b5b610d2385828601610ca3565b9150509250929050565b7f4e487b7100000000000000000000000000000000000000000000000000000000600052602260045260246000fd5b60006002820490506001821680610d7457607f821691505b602082108103610d8757610d86610d2d565b5b50919050565b7f4e6f7420616e20617574686f72697a656420657874656e73696f6e206f66666960008201527f6365720000000000000000000000000000000000000000000000000000000000602082015250565b6000610de9602383610a0a565b9150610df482610d8d565b604082019050919050565b60006020820190508181036000830152610e1881610ddc565b9050919050565b7f5265706f727420636f6e74656e742063616e6e6f7420626520656d7074790000600082015250565b6000610e55601e83610a0a565b9150610e6082610e1f565b602082019050919050565b60006020820190508181036000830152610e8481610e48565b9050919050565b60008190508160005260206000209050919050565b60006020601f8301049050919050565b600082821b905092915050565b600060088302610eed7fffffffffffffffffffffffffffffffffffffffffffffffffffffffffffffffff82610eb0565b610ef78683610eb0565b95508019841693508086168417925050509392505050565b6000819050919050565b6000610f34610f2f610f2a8461099c565b610f0f565b61099c565b9050919050565b6000819050919050565b610f4e83610f19565b610f62610f5a82610f3b565b848454610ebd565b825550505050565b600090565b610f77610f6a565b610f82818484610f45565b505050565b5b81811015610fa657610f9b600082610f6f565b600181019050610f88565b5050565b601f821115610feb57610fbc81610e8b565b610fc584610ea0565b81016020851015610fd4578190505b610fe8610fe085610ea0565b830182610f87565b50505b505050565b600082821c905092915050565b600061100e60001984600802610ff0565b1980831691505092915050565b60006110278383610ffd565b9150826002028217905092915050565b611040826109ff565b67ffffffffffffffff81111561105957611058610ba6565b5b6110638254610d5c565b61106e828285610faa565b600060209050601f8311600181146110a1576000841561108f578287015190505b611099858261101b565b865550611101565b601f1984166110af86610e8b565b60005b828110156110d7578489015182556001820191506020850194506020810190506110b2565b868310156110f457848901516110f0601f891682610ffd565b8355505b6001600288020188555050505b505050505050565b7f416c657274206d6573736167652063616e6e6f7420626520656d707479000000600082015250565b600061113f601d83610a0a565b915061114a82611109565b602082019050919050565b6000602082019050818103600083015261116e81611132565b9050919050565b7f4f6e6c79206f776e65722063616e2063616c6c20746869732066756e6374696f60008201527f6e2e000000000000000000000000000000000000000000000000000000000000602082015250565b60006111d1602283610a0a565b91506111dc82611175565b604082019050919050565b60006020820190508181036000830152611200816111c4565b905091905056fea264697066735822122063caa7fc31fb700a25e6d9feff18dc26a2c823899494209cfa843b2b36ee838a64736f6c63430008150033",
  "linkReferences": {},
  "deployedLinkReferences": {}
}