{
  "_format": "hh-sol-artifact-1",
  "contractName": "InHouseLoanService",
  "sourceName": "contracts/InHouseLoanService.sol",
  "abi": [
    {
      "inputs": [],
      "stateMutability": "nonpayable",
      "type": "constructor"
    },
    {
      "anonymous": false,
      "inputs": [
        {
          "indexed": false,
          "internalType": "address",
          "name": "borrower",
          "type": "address"
        },
        {
          "indexed": false,
          "internalType": "uint256",
          "name": "amount",
          "type": "uint256"
        }
      ],
      "name": "LoanApplied",
      "type": "event"
    },
    {
      "anonymous": false,
      "inputs": [
        {
          "indexed": false,
          "internalType": "address",
          "name": "borrower",
          "type": "address"
        }
      ],
      "name": "LoanApproved",
      "type": "event"
    },
    {
      "anonymous": false,
      "inputs": [
        {
          "indexed": false,
          "internalType": "address",
          "name": "borrower",
          "type": "address"
        },
        {
          "indexed": false,
          "internalType": "uint256",
          "name": "amount",
          "type": "uint256"
        }
      ],
      "name": "LoanDisbursed",
      "type": "event"
    },
    {
      "anonymous": false,
      "inputs": [
        {
          "indexed": false,
          "internalType": "address",
          "name": "borrower",
          "type": "address"
        },
        {
          "indexed": false,
          "internalType": "uint256",
          "name": "amount",
          "type": "uint256"
        }
      ],
      "name": "LoanRepaid",
      "type": "event"
    },
    {
      "inputs": [
        {
          "internalType": "uint256",
          "name": "_amount",
          "type": "uint256"
        },
        {
          "internalType": "uint256",
          "name": "_interestRate",
          "type": "uint256"
        },
        {
          "internalType": "uint256",
          "name": "_duration",
          "type": "uint256"
        }
      ],
      "name": "applyForLoan",
      "outputs": [],
      "stateMutability": "nonpayable",
      "type": "function"
    },
    {
      "inputs": [
        {
          "internalType": "address",
          "name": "_borrower",
          "type": "address"
        }
      ],
      "name": "approveLoan",
      "outputs": [],
      "stateMutability": "nonpayable",
      "type": "function"
    },
    {
      "inputs": [
        {
          "internalType": "address",
          "name": "_borrower",
          "type": "address"
        }
      ],
      "name": "checkLoanStatus",
      "outputs": [
        {
          "internalType": "string",
          "name": "",
          "type": "string"
        }
      ],
      "stateMutability": "view",
      "type": "function"
    },
    {
      "inputs": [
        {
          "internalType": "address",
          "name": "_borrower",
          "type": "address"
        }
      ],
      "name": "disburseLoan",
      "outputs": [],
      "stateMutability": "nonpayable",
      "type": "function"
    },
    {
      "inputs": [
        {
          "internalType": "address",
          "name": "_borrower",
          "type": "address"
        }
      ],
      "name": "getLoanInfo",
      "outputs": [
        {
          "components": [
            {
              "internalType": "uint256",
              "name": "amount",
              "type": "uint256"
            },
            {
              "internalType": "uint256",
              "name": "interestRate",
              "type": "uint256"
            },
            {
              "internalType": "uint256",
              "name": "duration",
              "type": "uint256"
            },
            {
              "internalType": "uint256",
              "name": "start",
              "type": "uint256"
            },
            {
              "internalType": "uint256",
              "name": "dueDate",
              "type": "uint256"
            },
            {
              "internalType": "bool",
              "name": "isApproved",
              "type": "bool"
            },
            {
              "internalType": "bool",
              "name": "isDisbursed",
              "type": "bool"
            },
            {
              "internalType": "bool",
              "name": "isRepaid",
              "type": "bool"
            }
          ],
          "internalType": "struct InHouseLoanService.Loan",
          "name": "",
          "type": "tuple"
        }
      ],
      "stateMutability": "view",
      "type": "function"
    },
    {
      "inputs": [
        {
          "internalType": "address",
          "name": "",
          "type": "address"
        }
      ],
      "name": "loans",
      "outputs": [
        {
          "internalType": "uint256",
          "name": "amount",
          "type": "uint256"
        },
        {
          "internalType": "uint256",
          "name": "interestRate",
          "type": "uint256"
        },
        {
          "internalType": "uint256",
          "name": "duration",
          "type": "uint256"
        },
        {
          "internalType": "uint256",
          "name": "start",
          "type": "uint256"
        },
        {
          "internalType": "uint256",
          "name": "dueDate",
          "type": "uint256"
        },
        {
          "internalType": "bool",
          "name": "isApproved",
          "type": "bool"
        },
        {
          "internalType": "bool",
          "name": "isDisbursed",
          "type": "bool"
        },
        {
          "internalType": "bool",
          "name": "isRepaid",
          "type": "bool"
        }
      ],
      "stateMutability": "view",
      "type": "function"
    },
    {
      "inputs": [],
      "name": "owner",
      "outputs": [
        {
          "internalType": "address",
          "name": "",
          "type": "address"
        }
      ],
      "stateMutability": "view",
      "type": "function"
    },
    {
      "inputs": [],
      "name": "repayLoan",
      "outputs": [],
      "stateMutability": "payable",
      "type": "function"
    },
    {
      "inputs": [],
      "name": "totalLoansDisbursed",
      "outputs": [
        {
          "internalType": "uint256",
          "name": "",
          "type": "uint256"
        }
      ],
      "stateMutability": "view",
      "type": "function"
    }
  ],
  "bytecode": "0x608060405234801561001057600080fd5b5033600160006101000a81548173ffffffffffffffffffffffffffffffffffffffff021916908373ffffffffffffffffffffffffffffffffffffffff160217905550611a04806100616000396000f3fe6080604052600436106100865760003560e01c8063ac64036111610059578063ac64036114610160578063b9e9c7bc14610189578063e1e3a7e0146101b4578063f966ade7146101f1578063fc245783146101fb57610086565b8063607fa5151461008b57806364a30116146100c857806373b4086b146100f15780638da5cb5b14610135575b600080fd5b34801561009757600080fd5b506100b260048036038101906100ad91906110f7565b610224565b6040516100bf91906111b4565b60405180910390f35b3480156100d457600080fd5b506100ef60048036038101906100ea91906110f7565b61040e565b005b3480156100fd57600080fd5b50610118600480360381019061011391906110f7565b61079b565b60405161012c98979695949392919061120a565b60405180910390f35b34801561014157600080fd5b5061014a61080a565b6040516101579190611297565b60405180910390f35b34801561016c57600080fd5b50610187600480360381019061018291906110f7565b610830565b005b34801561019557600080fd5b5061019e610a30565b6040516101ab91906112b2565b60405180910390f35b3480156101c057600080fd5b506101db60048036038101906101d691906110f7565b610a36565b6040516101e8919061138d565b60405180910390f35b6101f9610b12565b005b34801561020757600080fd5b50610222600480360381019061021d91906113d5565b610e6f565b005b606060008060008473ffffffffffffffffffffffffffffffffffffffff1673ffffffffffffffffffffffffffffffffffffffff1681526020019081526020016000206040518061010001604052908160008201548152602001600182015481526020016002820154815260200160038201548152602001600482015481526020016005820160009054906101000a900460ff161515151581526020016005820160019054906101000a900460ff161515151581526020016005820160029054906101000a900460ff16151515158152505090508060e001511561033f576040518060400160405280600681526020017f5265706169640000000000000000000000000000000000000000000000000000815250915050610409565b8060c0015115610387576040518060400160405280600981526020017f4469736275727365640000000000000000000000000000000000000000000000815250915050610409565b8060a00151156103cf576040518060400160405280600881526020017f417070726f766564000000000000000000000000000000000000000000000000815250915050610409565b6040518060400160405280601781526020017f4170706c696564206f72204e6f6e2d6578697374656e740000000000000000008152509150505b919050565b600160009054906101000a900473ffffffffffffffffffffffffffffffffffffffff1673ffffffffffffffffffffffffffffffffffffffff163373ffffffffffffffffffffffffffffffffffffffff161461049e576040517f08c379a00000000000000000000000000000000000000000000000000000000081526004016104959061149a565b60405180910390fd5b6000808273ffffffffffffffffffffffffffffffffffffffff1673ffffffffffffffffffffffffffffffffffffffff16815260200190815260200160002060050160009054906101000a900460ff16801561054557506000808273ffffffffffffffffffffffffffffffffffffffff1673ffffffffffffffffffffffffffffffffffffffff16815260200190815260200160002060050160019054906101000a900460ff16155b610584576040517f08c379a000000000000000000000000000000000000000000000000000000000815260040161057b9061152c565b60405180910390fd5b60016000808373ffffffffffffffffffffffffffffffffffffffff1673ffffffffffffffffffffffffffffffffffffffff16815260200190815260200160002060050160016101000a81548160ff021916908315150217905550426000808373ffffffffffffffffffffffffffffffffffffffff1673ffffffffffffffffffffffffffffffffffffffff16815260200190815260200160002060030181905550620151806000808373ffffffffffffffffffffffffffffffffffffffff1673ffffffffffffffffffffffffffffffffffffffff16815260200190815260200160002060020154610674919061157b565b4261067f91906115bd565b6000808373ffffffffffffffffffffffffffffffffffffffff1673ffffffffffffffffffffffffffffffffffffffff168152602001908152602001600020600401819055506000808273ffffffffffffffffffffffffffffffffffffffff1673ffffffffffffffffffffffffffffffffffffffff168152602001908152602001600020600001546002600082825461071791906115bd565b925050819055507fc31bb806fcba2c023d34eac91b760422818e0446743a8ea9759932f9282c3ead816000808473ffffffffffffffffffffffffffffffffffffffff1673ffffffffffffffffffffffffffffffffffffffff168152602001908152602001600020600001546040516107909291906115f1565b60405180910390a150565b60006020528060005260406000206000915090508060000154908060010154908060020154908060030154908060040154908060050160009054906101000a900460ff16908060050160019054906101000a900460ff16908060050160029054906101000a900460ff16905088565b600160009054906101000a900473ffffffffffffffffffffffffffffffffffffffff1681565b600160009054906101000a900473ffffffffffffffffffffffffffffffffffffffff1673ffffffffffffffffffffffffffffffffffffffff163373ffffffffffffffffffffffffffffffffffffffff16146108c0576040517f08c379a00000000000000000000000000000000000000000000000000000000081526004016108b79061149a565b60405180910390fd5b60008060008373ffffffffffffffffffffffffffffffffffffffff1673ffffffffffffffffffffffffffffffffffffffff1681526020019081526020016000206000015411801561095d57506000808273ffffffffffffffffffffffffffffffffffffffff1673ffffffffffffffffffffffffffffffffffffffff16815260200190815260200160002060050160009054906101000a900460ff16155b61099c576040517f08c379a000000000000000000000000000000000000000000000000000000000815260040161099390611666565b60405180910390fd5b60016000808373ffffffffffffffffffffffffffffffffffffffff1673ffffffffffffffffffffffffffffffffffffffff16815260200190815260200160002060050160006101000a81548160ff0219169083151502179055507f083b5686c242280e28ce7c919ee4150d603264992d79e7bedbf8551f7e285af481604051610a259190611297565b60405180910390a150565b60025481565b610a3e611049565b6000808373ffffffffffffffffffffffffffffffffffffffff1673ffffffffffffffffffffffffffffffffffffffff1681526020019081526020016000206040518061010001604052908160008201548152602001600182015481526020016002820154815260200160038201548152602001600482015481526020016005820160009054906101000a900460ff161515151581526020016005820160019054906101000a900460ff161515151581526020016005820160029054906101000a900460ff1615151515815250509050919050565b338073ffffffffffffffffffffffffffffffffffffffff163373ffffffffffffffffffffffffffffffffffffffff1614610b81576040517f08c379a0000000000000000000000000000000000000000000000000000000008152600401610b78906116f8565b60405180910390fd5b60008060003373ffffffffffffffffffffffffffffffffffffffff1673ffffffffffffffffffffffffffffffffffffffff16815260200190815260200160002090508060050160019054906101000a900460ff168015610bf057508060050160029054906101000a900460ff16155b610c2f576040517f08c379a0000000000000000000000000000000000000000000000000000000008152600401610c269061178a565b60405180910390fd5b8060040154421115610c76576040517f08c379a0000000000000000000000000000000000000000000000000000000008152600401610c6d906117f6565b60405180910390fd5b60006018603c80846003015442610c8d9190611816565b610c979190611879565b610ca19190611879565b610cab9190611879565b90506000618e948284600101548560000154610cc7919061157b565b610cd1919061157b565b610cdb9190611879565b90506000818460000154610cef91906115bd565b905080341015610d34576040517f08c379a0000000000000000000000000000000000000000000000000000000008152600401610d2b9061191c565b60405180910390fd5b60018460050160026101000a81548160ff02191690831515021790555060008134610d5f9190611816565b90506000811115610db2573373ffffffffffffffffffffffffffffffffffffffff166108fc829081150290604051600060405180830381858888f19350505050158015610db0573d6000803e3d6000fd5b505b600160009054906101000a900473ffffffffffffffffffffffffffffffffffffffff1673ffffffffffffffffffffffffffffffffffffffff166108fc866000015484610dfe9190611816565b9081150290604051600060405180830381858888f19350505050158015610e29573d6000803e3d6000fd5b507fc200a1f31dd659e356e0f112c82558e25f49f7b0f84438691cd96f5cb3558823338660000154604051610e5f9291906115f1565b60405180910390a1505050505050565b60008060003373ffffffffffffffffffffffffffffffffffffffff1673ffffffffffffffffffffffffffffffffffffffff1681526020019081526020016000206000015414610ef3576040517f08c379a0000000000000000000000000000000000000000000000000000000008152600401610eea906119ae565b60405180910390fd5b6040518061010001604052808481526020018381526020018281526020016000815260200160008152602001600015158152602001600015158152602001600015158152506000803373ffffffffffffffffffffffffffffffffffffffff1673ffffffffffffffffffffffffffffffffffffffff168152602001908152602001600020600082015181600001556020820151816001015560408201518160020155606082015181600301556080820151816004015560a08201518160050160006101000a81548160ff02191690831515021790555060c08201518160050160016101000a81548160ff02191690831515021790555060e08201518160050160026101000a81548160ff0219169083151502179055509050507f6bf3a3ca4ae04a4984ce4d67db52c068d5d4039b81a458247fe15fb494a591a6338460405161103c9291906115f1565b60405180910390a1505050565b60405180610100016040528060008152602001600081526020016000815260200160008152602001600081526020016000151581526020016000151581526020016000151581525090565b600080fd5b600073ffffffffffffffffffffffffffffffffffffffff82169050919050565b60006110c482611099565b9050919050565b6110d4816110b9565b81146110df57600080fd5b50565b6000813590506110f1816110cb565b92915050565b60006020828403121561110d5761110c611094565b5b600061111b848285016110e2565b91505092915050565b600081519050919050565b600082825260208201905092915050565b60005b8381101561115e578082015181840152602081019050611143565b60008484015250505050565b6000601f19601f8301169050919050565b600061118682611124565b611190818561112f565b93506111a0818560208601611140565b6111a98161116a565b840191505092915050565b600060208201905081810360008301526111ce818461117b565b905092915050565b6000819050919050565b6111e9816111d6565b82525050565b60008115159050919050565b611204816111ef565b82525050565b600061010082019050611220600083018b6111e0565b61122d602083018a6111e0565b61123a60408301896111e0565b61124760608301886111e0565b61125460808301876111e0565b61126160a08301866111fb565b61126e60c08301856111fb565b61127b60e08301846111fb565b9998505050505050505050565b611291816110b9565b82525050565b60006020820190506112ac6000830184611288565b92915050565b60006020820190506112c760008301846111e0565b92915050565b6112d6816111d6565b82525050565b6112e5816111ef565b82525050565b6101008201600082015161130260008501826112cd565b50602082015161131560208501826112cd565b50604082015161132860408501826112cd565b50606082015161133b60608501826112cd565b50608082015161134e60808501826112cd565b5060a082015161136160a08501826112dc565b5060c082015161137460c08501826112dc565b5060e082015161138760e08501826112dc565b50505050565b6000610100820190506113a360008301846112eb565b92915050565b6113b2816111d6565b81146113bd57600080fd5b50565b6000813590506113cf816113a9565b92915050565b6000806000606084860312156113ee576113ed611094565b5b60006113fc868287016113c0565b935050602061140d868287016113c0565b925050604061141e868287016113c0565b9150509250925092565b7f4f6e6c79206f776e65722063616e20706572666f726d2074686973206163746960008201527f6f6e2e0000000000000000000000000000000000000000000000000000000000602082015250565b600061148460238361112f565b915061148f82611428565b604082019050919050565b600060208201905081810360008301526114b381611477565b9050919050565b7f4c6f616e206d75737420626520617070726f76656420616e64206e6f7420796560008201527f7420646973627572736564000000000000000000000000000000000000000000602082015250565b6000611516602b8361112f565b9150611521826114ba565b604082019050919050565b6000602082019050818103600083015261154581611509565b9050919050565b7f4e487b7100000000000000000000000000000000000000000000000000000000600052601160045260246000fd5b6000611586826111d6565b9150611591836111d6565b925082820261159f816111d6565b915082820484148315176115b6576115b561154c565b5b5092915050565b60006115c8826111d6565b91506115d3836111d6565b92508282019050808211156115eb576115ea61154c565b5b92915050565b60006040820190506116066000830185611288565b61161360208301846111e0565b9392505050565b7f496e76616c6964206c6f616e206170706c69636174696f6e0000000000000000600082015250565b600061165060188361112f565b915061165b8261161a565b602082019050919050565b6000602082019050818103600083015261167f81611643565b9050919050565b7f556e617574686f72697a65643a204f6e6c7920626f72726f77657220616c6c6f60008201527f7765640000000000000000000000000000000000000000000000000000000000602082015250565b60006116e260238361112f565b91506116ed82611686565b604082019050919050565b60006020820190508181036000830152611711816116d5565b9050919050565b7f4c6f616e206d7573742062652064697362757273656420616e64206e6f74207960008201527f6574207265706169640000000000000000000000000000000000000000000000602082015250565b600061177460298361112f565b915061177f82611718565b604082019050919050565b600060208201905081810360008301526117a381611767565b9050919050565b7f4c6f616e2072657061796d656e74206973206f76657264756500000000000000600082015250565b60006117e060198361112f565b91506117eb826117aa565b602082019050919050565b6000602082019050818103600083015261180f816117d3565b9050919050565b6000611821826111d6565b915061182c836111d6565b92508282039050818111156118445761184361154c565b5b92915050565b7f4e487b7100000000000000000000000000000000000000000000000000000000600052601260045260246000fd5b6000611884826111d6565b915061188f836111d6565b92508261189f5761189e61184a565b5b828204905092915050565b7f496e73756666696369656e7420616d6f756e7420746f2072657061792074686560008201527f206c6f616e000000000000000000000000000000000000000000000000000000602082015250565b600061190660258361112f565b9150611911826118aa565b604082019050919050565b60006020820190508181036000830152611935816118f9565b9050919050565b7f4578697374696e67206c6f616e206d757374206265207265706169642066697260008201527f7374000000000000000000000000000000000000000000000000000000000000602082015250565b600061199860228361112f565b91506119a38261193c565b604082019050919050565b600060208201905081810360008301526119c78161198b565b905091905056fea2646970667358221220df79a050b2a26fc4ef394b9b9b871c073cba8e0a57b4170056f9c6849e16e30164736f6c63430008150033",
  "linkReferences": {},
  "deployedLinkReferences": {}
}