{
  "_format": "hh-sol-artifact-1",
  "contractName": "InvestorFarmerRegistration",
  "sourceName": "contracts/InvestorFarmerRegistration.sol",
  "abi": [
    {
      "anonymous": false,
      "inputs": [
        {
          "indexed": true,
          "internalType": "address",
          "name": "user",
          "type": "address"
        },
        {
          "indexed": false,
          "internalType": "enum InvestorFarmerRegistration.UserType",
          "name": "userType",
          "type": "uint8"
        },
        {
          "indexed": false,
          "internalType": "string",
          "name": "name",
          "type": "string"
        },
        {
          "indexed": false,
          "internalType": "string",
          "name": "email",
          "type": "string"
        }
      ],
      "name": "ProfileCreated",
      "type": "event"
    },
    {
      "anonymous": false,
      "inputs": [
        {
          "indexed": true,
          "internalType": "address",
          "name": "user",
          "type": "address"
        },
        {
          "indexed": false,
          "internalType": "enum InvestorFarmerRegistration.UserType",
          "name": "userType",
          "type": "uint8"
        }
      ],
      "name": "ProfileDeactivated",
      "type": "event"
    },
    {
      "anonymous": false,
      "inputs": [
        {
          "indexed": true,
          "internalType": "address",
          "name": "user",
          "type": "address"
        },
        {
          "indexed": false,
          "internalType": "enum InvestorFarmerRegistration.UserType",
          "name": "userType",
          "type": "uint8"
        },
        {
          "indexed": false,
          "internalType": "string",
          "name": "name",
          "type": "string"
        },
        {
          "indexed": false,
          "internalType": "string",
          "name": "email",
          "type": "string"
        }
      ],
      "name": "ProfileUpdated",
      "type": "event"
    },
    {
      "inputs": [],
      "name": "deactivateProfile",
      "outputs": [],
      "stateMutability": "nonpayable",
      "type": "function"
    },
    {
      "inputs": [
        {
          "internalType": "address",
          "name": "user",
          "type": "address"
        }
      ],
      "name": "getProfile",
      "outputs": [
        {
          "components": [
            {
              "internalType": "string",
              "name": "name",
              "type": "string"
            },
            {
              "internalType": "string",
              "name": "email",
              "type": "string"
            },
            {
              "internalType": "enum InvestorFarmerRegistration.UserType",
              "name": "userType",
              "type": "uint8"
            },
            {
              "internalType": "bool",
              "name": "isActive",
              "type": "bool"
            }
          ],
          "internalType": "struct InvestorFarmerRegistration.Profile",
          "name": "",
          "type": "tuple"
        }
      ],
      "stateMutability": "view",
      "type": "function"
    },
    {
      "inputs": [
        {
          "internalType": "address",
          "name": "",
          "type": "address"
        }
      ],
      "name": "isRegistered",
      "outputs": [
        {
          "internalType": "bool",
          "name": "",
          "type": "bool"
        }
      ],
      "stateMutability": "view",
      "type": "function"
    },
    {
      "inputs": [],
      "name": "reactivateProfile",
      "outputs": [],
      "stateMutability": "nonpayable",
      "type": "function"
    },
    {
      "inputs": [
        {
          "internalType": "string",
          "name": "name",
          "type": "string"
        },
        {
          "internalType": "string",
          "name": "email",
          "type": "string"
        },
        {
          "internalType": "enum InvestorFarmerRegistration.UserType",
          "name": "userType",
          "type": "uint8"
        }
      ],
      "name": "registerProfile",
      "outputs": [],
      "stateMutability": "nonpayable",
      "type": "function"
    },
    {
      "inputs": [
        {
          "internalType": "string",
          "name": "name",
          "type": "string"
        },
        {
          "internalType": "string",
          "name": "email",
          "type": "string"
        }
      ],
      "name": "updateProfile",
      "outputs": [],
      "stateMutability": "nonpayable",
      "type": "function"
    }
  ],
  "bytecode": "0x608060405234801561001057600080fd5b5061195d806100206000396000f3fe608060405234801561001057600080fd5b50600436106100625760003560e01c80630f53a4701461006757806320a17bca1461009757806375db7721146100a15780639734cbb2146100ab578063c3c5a547146100c7578063c9d3cc6a146100f7575b600080fd5b610081600480360381019061007c9190610d87565b610113565b60405161008e9190610f40565b60405180910390f35b61009f610371565b005b6100a961052e565b005b6100c560048036038101906100c091906110bc565b610747565b005b6100e160048036038101906100dc9190610d87565b610a32565b6040516100ee9190611156565b60405180910390f35b610111600480360381019061010c9190611171565b610a52565b005b61011b610cd9565b600160008373ffffffffffffffffffffffffffffffffffffffff1673ffffffffffffffffffffffffffffffffffffffff16815260200190815260200160002060009054906101000a900460ff166101a7576040517f08c379a000000000000000000000000000000000000000000000000000000000815260040161019e90611246565b60405180910390fd5b6000808373ffffffffffffffffffffffffffffffffffffffff1673ffffffffffffffffffffffffffffffffffffffff16815260200190815260200160002060405180608001604052908160008201805461020090611295565b80601f016020809104026020016040519081016040528092919081815260200182805461022c90611295565b80156102795780601f1061024e57610100808354040283529160200191610279565b820191906000526020600020905b81548152906001019060200180831161025c57829003601f168201915b5050505050815260200160018201805461029290611295565b80601f01602080910402602001604051908101604052809291908181526020018280546102be90611295565b801561030b5780601f106102e05761010080835404028352916020019161030b565b820191906000526020600020905b8154815290600101906020018083116102ee57829003601f168201915b505050505081526020016002820160009054906101000a900460ff16600181111561033957610338610e44565b5b600181111561034b5761034a610e44565b5b81526020016002820160019054906101000a900460ff1615151515815250509050919050565b33600160008273ffffffffffffffffffffffffffffffffffffffff1673ffffffffffffffffffffffffffffffffffffffff16815260200190815260200160002060009054906101000a900460ff166103fe576040517f08c379a00000000000000000000000000000000000000000000000000000000081526004016103f590611246565b60405180910390fd5b8073ffffffffffffffffffffffffffffffffffffffff163373ffffffffffffffffffffffffffffffffffffffff161461046c576040517f08c379a000000000000000000000000000000000000000000000000000000000815260040161046390611338565b60405180910390fd5b60008060003373ffffffffffffffffffffffffffffffffffffffff1673ffffffffffffffffffffffffffffffffffffffff168152602001908152602001600020905060008160020160016101000a81548160ff0219169083151502179055503373ffffffffffffffffffffffffffffffffffffffff167f2100ce6f4a327ba223ba3d2eb995d11abbffefef998ba8b7d3ff915de730ffa98260020160009054906101000a900460ff166040516105229190611367565b60405180910390a25050565b33600160008273ffffffffffffffffffffffffffffffffffffffff1673ffffffffffffffffffffffffffffffffffffffff16815260200190815260200160002060009054906101000a900460ff166105bb576040517f08c379a00000000000000000000000000000000000000000000000000000000081526004016105b290611246565b60405180910390fd5b8073ffffffffffffffffffffffffffffffffffffffff163373ffffffffffffffffffffffffffffffffffffffff1614610629576040517f08c379a000000000000000000000000000000000000000000000000000000000815260040161062090611338565b60405180910390fd5b60008060003373ffffffffffffffffffffffffffffffffffffffff1673ffffffffffffffffffffffffffffffffffffffff16815260200190815260200160002090508060020160019054906101000a900460ff16156106bd576040517f08c379a00000000000000000000000000000000000000000000000000000000081526004016106b4906113ce565b60405180910390fd5b60018160020160016101000a81548160ff0219169083151502179055503373ffffffffffffffffffffffffffffffffffffffff167f6576857aa0a6f4b596df56d23994a019bba1718344349c6b24f0d6c213e2664e8260020160009054906101000a900460ff16836000018460010160405161073b93929190611487565b60405180910390a25050565b81600581511180156107c457507f2e0000000000000000000000000000000000000000000000000000000000000081600483516107849190611505565b8151811061079557610794611539565b5b602001015160f81c60f81b7effffffffffffffffffffffffffffffffffffffffffffffffffffffffffffff1916145b610803576040517f08c379a00000000000000000000000000000000000000000000000000000000081526004016107fa906115b4565b60405180910390fd5b600160003373ffffffffffffffffffffffffffffffffffffffff1673ffffffffffffffffffffffffffffffffffffffff16815260200190815260200160002060009054906101000a900460ff1615610890576040517f08c379a000000000000000000000000000000000000000000000000000000000815260040161088790611620565b60405180910390fd5b60405180608001604052808581526020018481526020018360018111156108ba576108b9610e44565b5b8152602001600115158152506000803373ffffffffffffffffffffffffffffffffffffffff1673ffffffffffffffffffffffffffffffffffffffff168152602001908152602001600020600082015181600001908161091991906117d7565b50602082015181600101908161092f91906117d7565b5060408201518160020160006101000a81548160ff0219169083600181111561095b5761095a610e44565b5b021790555060608201518160020160016101000a81548160ff02191690831515021790555090505060018060003373ffffffffffffffffffffffffffffffffffffffff1673ffffffffffffffffffffffffffffffffffffffff16815260200190815260200160002060006101000a81548160ff0219169083151502179055503373ffffffffffffffffffffffffffffffffffffffff167fa7ab64b93544dd343444c7e318f8369e46e8a4a7ab705400ebf13f549605fffc838686604051610a24939291906118e2565b60405180910390a250505050565b60016020528060005260406000206000915054906101000a900460ff1681565b33600160008273ffffffffffffffffffffffffffffffffffffffff1673ffffffffffffffffffffffffffffffffffffffff16815260200190815260200160002060009054906101000a900460ff16610adf576040517f08c379a0000000000000000000000000000000000000000000000000000000008152600401610ad690611246565b60405180910390fd5b8073ffffffffffffffffffffffffffffffffffffffff163373ffffffffffffffffffffffffffffffffffffffff1614610b4d576040517f08c379a0000000000000000000000000000000000000000000000000000000008152600401610b4490611338565b60405180910390fd5b8160058151118015610bca57507f2e000000000000000000000000000000000000000000000000000000000000008160048351610b8a9190611505565b81518110610b9b57610b9a611539565b5b602001015160f81c60f81b7effffffffffffffffffffffffffffffffffffffffffffffffffffffffffffff1916145b610c09576040517f08c379a0000000000000000000000000000000000000000000000000000000008152600401610c00906115b4565b60405180910390fd5b60008060003373ffffffffffffffffffffffffffffffffffffffff1673ffffffffffffffffffffffffffffffffffffffff168152602001908152602001600020905084816000019081610c5c91906117d7565b5083816001019081610c6e91906117d7565b503373ffffffffffffffffffffffffffffffffffffffff167f6576857aa0a6f4b596df56d23994a019bba1718344349c6b24f0d6c213e2664e8260020160009054906101000a900460ff168787604051610cca939291906118e2565b60405180910390a25050505050565b6040518060800160405280606081526020016060815260200160006001811115610d0657610d05610e44565b5b81526020016000151581525090565b6000604051905090565b600080fd5b600080fd5b600073ffffffffffffffffffffffffffffffffffffffff82169050919050565b6000610d5482610d29565b9050919050565b610d6481610d49565b8114610d6f57600080fd5b50565b600081359050610d8181610d5b565b92915050565b600060208284031215610d9d57610d9c610d1f565b5b6000610dab84828501610d72565b91505092915050565b600081519050919050565b600082825260208201905092915050565b60005b83811015610dee578082015181840152602081019050610dd3565b60008484015250505050565b6000601f19601f8301169050919050565b6000610e1682610db4565b610e208185610dbf565b9350610e30818560208601610dd0565b610e3981610dfa565b840191505092915050565b7f4e487b7100000000000000000000000000000000000000000000000000000000600052602160045260246000fd5b60028110610e8457610e83610e44565b5b50565b6000819050610e9582610e73565b919050565b6000610ea582610e87565b9050919050565b610eb581610e9a565b82525050565b60008115159050919050565b610ed081610ebb565b82525050565b60006080830160008301518482036000860152610ef38282610e0b565b91505060208301518482036020860152610f0d8282610e0b565b9150506040830151610f226040860182610eac565b506060830151610f356060860182610ec7565b508091505092915050565b60006020820190508181036000830152610f5a8184610ed6565b905092915050565b600080fd5b600080fd5b7f4e487b7100000000000000000000000000000000000000000000000000000000600052604160045260246000fd5b610fa482610dfa565b810181811067ffffffffffffffff82111715610fc357610fc2610f6c565b5b80604052505050565b6000610fd6610d15565b9050610fe28282610f9b565b919050565b600067ffffffffffffffff82111561100257611001610f6c565b5b61100b82610dfa565b9050602081019050919050565b82818337600083830152505050565b600061103a61103584610fe7565b610fcc565b90508281526020810184848401111561105657611055610f67565b5b611061848285611018565b509392505050565b600082601f83011261107e5761107d610f62565b5b813561108e848260208601611027565b91505092915050565b600281106110a457600080fd5b50565b6000813590506110b681611097565b92915050565b6000806000606084860312156110d5576110d4610d1f565b5b600084013567ffffffffffffffff8111156110f3576110f2610d24565b5b6110ff86828701611069565b935050602084013567ffffffffffffffff8111156111205761111f610d24565b5b61112c86828701611069565b925050604061113d868287016110a7565b9150509250925092565b61115081610ebb565b82525050565b600060208201905061116b6000830184611147565b92915050565b6000806040838503121561118857611187610d1f565b5b600083013567ffffffffffffffff8111156111a6576111a5610d24565b5b6111b285828601611069565b925050602083013567ffffffffffffffff8111156111d3576111d2610d24565b5b6111df85828601611069565b9150509250929050565b600082825260208201905092915050565b7f50726f66696c65206e6f74207265676973746572656400000000000000000000600082015250565b60006112306016836111e9565b915061123b826111fa565b602082019050919050565b6000602082019050818103600083015261125f81611223565b9050919050565b7f4e487b7100000000000000000000000000000000000000000000000000000000600052602260045260246000fd5b600060028204905060018216806112ad57607f821691505b6020821081036112c0576112bf611266565b5b50919050565b7f556e617574686f72697a65643a204f6e6c792070726f66696c65206f776e657260008201527f2063616e20757064617465000000000000000000000000000000000000000000602082015250565b6000611322602b836111e9565b915061132d826112c6565b604082019050919050565b6000602082019050818103600083015261135181611315565b9050919050565b61136181610e9a565b82525050565b600060208201905061137c6000830184611358565b92915050565b7f50726f66696c6520697320616c72656164792061637469766500000000000000600082015250565b60006113b86019836111e9565b91506113c382611382565b602082019050919050565b600060208201905081810360008301526113e7816113ab565b9050919050565b60008190508160005260206000209050919050565b6000815461141081611295565b61141a81866111e9565b94506001821660008114611435576001811461144b5761147e565b60ff19831686528115156020028601935061147e565b611454856113ee565b60005b8381101561147657815481890152600182019150602081019050611457565b808801955050505b50505092915050565b600060608201905061149c6000830186611358565b81810360208301526114ae8185611403565b905081810360408301526114c28184611403565b9050949350505050565b6000819050919050565b7f4e487b7100000000000000000000000000000000000000000000000000000000600052601160045260246000fd5b6000611510826114cc565b915061151b836114cc565b9250828203905081811115611533576115326114d6565b5b92915050565b7f4e487b7100000000000000000000000000000000000000000000000000000000600052603260045260246000fd5b7f496e76616c696420656d61696c20666f726d6174000000000000000000000000600082015250565b600061159e6014836111e9565b91506115a982611568565b602082019050919050565b600060208201905081810360008301526115cd81611591565b9050919050565b7f4164647265737320616c72656164792072656769737465726564000000000000600082015250565b600061160a601a836111e9565b9150611615826115d4565b602082019050919050565b60006020820190508181036000830152611639816115fd565b9050919050565b60006020601f8301049050919050565b600082821b905092915050565b60006008830261168d7fffffffffffffffffffffffffffffffffffffffffffffffffffffffffffffffff82611650565b6116978683611650565b95508019841693508086168417925050509392505050565b6000819050919050565b60006116d46116cf6116ca846114cc565b6116af565b6114cc565b9050919050565b6000819050919050565b6116ee836116b9565b6117026116fa826116db565b84845461165d565b825550505050565b600090565b61171761170a565b6117228184846116e5565b505050565b5b818110156117465761173b60008261170f565b600181019050611728565b5050565b601f82111561178b5761175c816113ee565b61176584611640565b81016020851015611774578190505b61178861178085611640565b830182611727565b50505b505050565b600082821c905092915050565b60006117ae60001984600802611790565b1980831691505092915050565b60006117c7838361179d565b9150826002028217905092915050565b6117e082610db4565b67ffffffffffffffff8111156117f9576117f8610f6c565b5b6118038254611295565b61180e82828561174a565b600060209050601f831160018114611841576000841561182f578287015190505b61183985826117bb565b8655506118a1565b601f19841661184f866113ee565b60005b8281101561187757848901518255600182019150602085019450602081019050611852565b868310156118945784890151611890601f89168261179d565b8355505b6001600288020188555050505b505050505050565b60006118b482610db4565b6118be81856111e9565b93506118ce818560208601610dd0565b6118d781610dfa565b840191505092915050565b60006060820190506118f76000830186611358565b818103602083015261190981856118a9565b9050818103604083015261191d81846118a9565b905094935050505056fea2646970667358221220bafe567e141007930760fde281997be5b94841aa9d14d98cc9a80703b1f8915964736f6c63430008150033",
  "linkReferences": {},
  "deployedLinkReferences": {}
}