{
  "_format": "hh-sol-artifact-1",
  "contractName": "SalesAndRevenueManagement",
  "sourceName": "contracts/SalesAndRevenueManagement.sol",
  "abi": [
    {
      "inputs": [],
      "stateMutability": "nonpayable",
      "type": "constructor"
    },
    {
      "anonymous": false,
      "inputs": [
        {
          "indexed": false,
          "internalType": "address",
          "name": "newOwner",
          "type": "address"
        }
      ],
      "name": "OwnerUpdated",
      "type": "event"
    },
    {
      "anonymous": false,
      "inputs": [
        {
          "indexed": false,
          "internalType": "uint256",
          "name": "amount",
          "type": "uint256"
        }
      ],
      "name": "PaymentsMade",
      "type": "event"
    },
    {
      "anonymous": false,
      "inputs": [
        {
          "indexed": false,
          "internalType": "uint256",
          "name": "amount",
          "type": "uint256"
        }
      ],
      "name": "ProfitsDistributed",
      "type": "event"
    },
    {
      "anonymous": false,
      "inputs": [
        {
          "indexed": false,
          "internalType": "address",
          "name": "to",
          "type": "address"
        },
        {
          "indexed": false,
          "internalType": "uint256",
          "name": "amount",
          "type": "uint256"
        }
      ],
      "name": "RevenueWithdrawn",
      "type": "event"
    },
    {
      "anonymous": false,
      "inputs": [
        {
          "indexed": true,
          "internalType": "uint256",
          "name": "saleId",
          "type": "uint256"
        },
        {
          "indexed": false,
          "internalType": "uint256",
          "name": "amount",
          "type": "uint256"
        },
        {
          "indexed": false,
          "internalType": "address",
          "name": "buyer",
          "type": "address"
        },
        {
          "indexed": false,
          "internalType": "uint256",
          "name": "projectId",
          "type": "uint256"
        }
      ],
      "name": "SaleRecorded",
      "type": "event"
    },
    {
      "inputs": [],
      "name": "checkContractBalance",
      "outputs": [
        {
          "internalType": "uint256",
          "name": "",
          "type": "uint256"
        }
      ],
      "stateMutability": "view",
      "type": "function"
    },
    {
      "inputs": [
        {
          "internalType": "uint256",
          "name": "amount",
          "type": "uint256"
        }
      ],
      "name": "distributeProfits",
      "outputs": [],
      "stateMutability": "nonpayable",
      "type": "function"
    },
    {
      "inputs": [
        {
          "internalType": "uint256",
          "name": "saleId",
          "type": "uint256"
        }
      ],
      "name": "getSaleDetails",
      "outputs": [
        {
          "components": [
            {
              "internalType": "uint256",
              "name": "amount",
              "type": "uint256"
            },
            {
              "internalType": "address",
              "name": "buyer",
              "type": "address"
            },
            {
              "internalType": "uint256",
              "name": "date",
              "type": "uint256"
            },
            {
              "internalType": "uint256",
              "name": "projectId",
              "type": "uint256"
            }
          ],
          "internalType": "struct SalesAndRevenueManagement.Sale",
          "name": "",
          "type": "tuple"
        }
      ],
      "stateMutability": "view",
      "type": "function"
    },
    {
      "inputs": [
        {
          "internalType": "uint256",
          "name": "projectId",
          "type": "uint256"
        }
      ],
      "name": "getTotalSalesForProject",
      "outputs": [
        {
          "internalType": "uint256",
          "name": "",
          "type": "uint256"
        }
      ],
      "stateMutability": "view",
      "type": "function"
    },
    {
      "inputs": [
        {
          "internalType": "uint256",
          "name": "amount",
          "type": "uint256"
        }
      ],
      "name": "makePaymentsToFarmers",
      "outputs": [],
      "stateMutability": "nonpayable",
      "type": "function"
    },
    {
      "inputs": [],
      "name": "nextSaleId",
      "outputs": [
        {
          "internalType": "uint256",
          "name": "",
          "type": "uint256"
        }
      ],
      "stateMutability": "view",
      "type": "function"
    },
    {
      "inputs": [],
      "name": "owner",
      "outputs": [
        {
          "internalType": "address",
          "name": "",
          "type": "address"
        }
      ],
      "stateMutability": "view",
      "type": "function"
    },
    {
      "inputs": [
        {
          "internalType": "uint256",
          "name": "projectId",
          "type": "uint256"
        },
        {
          "internalType": "uint256",
          "name": "amount",
          "type": "uint256"
        },
        {
          "internalType": "address",
          "name": "buyer",
          "type": "address"
        }
      ],
      "name": "recordSale",
      "outputs": [],
      "stateMutability": "nonpayable",
      "type": "function"
    },
    {
      "inputs": [
        {
          "internalType": "uint256",
          "name": "",
          "type": "uint256"
        }
      ],
      "name": "sales",
      "outputs": [
        {
          "internalType": "uint256",
          "name": "amount",
          "type": "uint256"
        },
        {
          "internalType": "address",
          "name": "buyer",
          "type": "address"
        },
        {
          "internalType": "uint256",
          "name": "date",
          "type": "uint256"
        },
        {
          "internalType": "uint256",
          "name": "projectId",
          "type": "uint256"
        }
      ],
      "stateMutability": "view",
      "type": "function"
    },
    {
      "inputs": [],
      "name": "totalDistributedToInvestors",
      "outputs": [
        {
          "internalType": "uint256",
          "name": "",
          "type": "uint256"
        }
      ],
      "stateMutability": "view",
      "type": "function"
    },
    {
      "inputs": [],
      "name": "totalPaidToFarmers",
      "outputs": [
        {
          "internalType": "uint256",
          "name": "",
          "type": "uint256"
        }
      ],
      "stateMutability": "view",
      "type": "function"
    },
    {
      "inputs": [],
      "name": "totalRevenue",
      "outputs": [
        {
          "internalType": "uint256",
          "name": "",
          "type": "uint256"
        }
      ],
      "stateMutability": "view",
      "type": "function"
    },
    {
      "inputs": [
        {
          "internalType": "address",
          "name": "newOwner",
          "type": "address"
        }
      ],
      "name": "updateOwner",
      "outputs": [],
      "stateMutability": "nonpayable",
      "type": "function"
    },
    {
      "inputs": [
        {
          "internalType": "address payable",
          "name": "to",
          "type": "address"
        },
        {
          "internalType": "uint256",
          "name": "amount",
          "type": "uint256"
        }
      ],
      "name": "withdrawRevenue",
      "outputs": [],
      "stateMutability": "nonpayable",
      "type": "function"
    }
  ],
  "bytecode": "0x608060405234801561001057600080fd5b50336000806101000a81548173ffffffffffffffffffffffffffffffffffffffff021916908373ffffffffffffffffffffffffffffffffffffffff160217905550611465806100606000396000f3fe608060405234801561001057600080fd5b50600436106100ea5760003560e01c80638da5cb5b1161008c578063afcd096b11610066578063afcd096b14610235578063b5f522f714610253578063bf2d9e0b14610286578063deb077b9146102a4576100ea565b80638da5cb5b146101df5780639a969768146101fd578063abb63f3714610219576100ea565b806350312c9e116100c857806350312c9e14610159578063880cdc31146101775780638b63c267146101935780638c746d8b146101af576100ea565b80631155045c146100ef5780633c95956e1461010d5780634132b02d14610129575b600080fd5b6100f76102c2565b6040516101049190610c48565b60405180910390f35b61012760048036038101906101229190610cf2565b6102c8565b005b610143600480360381019061013e9190610d45565b6104c1565b6040516101509190610c48565b60405180910390f35b610161610534565b60405161016e9190610c48565b60405180910390f35b610191600480360381019061018c9190610d72565b61053c565b005b6101ad60048036038101906101a89190610ddd565b6106b3565b005b6101c960048036038101906101c49190610d45565b610808565b6040516101d69190610e90565b60405180910390f35b6101e76108ed565b6040516101f49190610eba565b60405180910390f35b61021760048036038101906102129190610d45565b610911565b005b610233600480360381019061022e9190610d45565b610a50565b005b61023d610b8f565b60405161024a9190610c48565b60405180910390f35b61026d60048036038101906102689190610d45565b610b95565b60405161027d9493929190610ed5565b60405180910390f35b61028e610be5565b60405161029b9190610c48565b60405180910390f35b6102ac610beb565b6040516102b99190610c48565b60405180910390f35b60025481565b60008054906101000a900473ffffffffffffffffffffffffffffffffffffffff1673ffffffffffffffffffffffffffffffffffffffff163373ffffffffffffffffffffffffffffffffffffffff1614610356576040517f08c379a000000000000000000000000000000000000000000000000000000000815260040161034d90610f9d565b60405180910390fd5b60008211610399576040517f08c379a00000000000000000000000000000000000000000000000000000000081526004016103909061102f565b60405180910390fd5b60405180608001604052808381526020018273ffffffffffffffffffffffffffffffffffffffff168152602001428152602001848152506004600060055481526020019081526020016000206000820151816000015560208201518160010160006101000a81548173ffffffffffffffffffffffffffffffffffffffff021916908373ffffffffffffffffffffffffffffffffffffffff16021790555060408201518160020155606082015181600301559050506005547f6a5561075373321e427809f992f319a1bf468c55f5a9db284a58e8eb6fba0d528383866040516104839392919061104f565b60405180910390a26005600081548092919061049e906110b5565b919050555081600160008282546104b591906110fd565b92505081905550505050565b6000806000905060005b60055481101561052a57836004600083815260200190815260200160002060030154036105175760046000828152602001908152602001600020600001548261051491906110fd565b91505b8080610522906110b5565b9150506104cb565b5080915050919050565b600047905090565b60008054906101000a900473ffffffffffffffffffffffffffffffffffffffff1673ffffffffffffffffffffffffffffffffffffffff163373ffffffffffffffffffffffffffffffffffffffff16146105ca576040517f08c379a00000000000000000000000000000000000000000000000000000000081526004016105c190610f9d565b60405180910390fd5b600073ffffffffffffffffffffffffffffffffffffffff168173ffffffffffffffffffffffffffffffffffffffff1603610639576040517f08c379a00000000000000000000000000000000000000000000000000000000081526004016106309061117d565b60405180910390fd5b806000806101000a81548173ffffffffffffffffffffffffffffffffffffffff021916908373ffffffffffffffffffffffffffffffffffffffff1602179055507f4ffd725fc4a22075e9ec71c59edf9c38cdeb588a91b24fc5b61388c5be41282b816040516106a89190610eba565b60405180910390a150565b60008054906101000a900473ffffffffffffffffffffffffffffffffffffffff1673ffffffffffffffffffffffffffffffffffffffff163373ffffffffffffffffffffffffffffffffffffffff1614610741576040517f08c379a000000000000000000000000000000000000000000000000000000000815260040161073890610f9d565b60405180910390fd5b47811115610784576040517f08c379a000000000000000000000000000000000000000000000000000000000815260040161077b906111e9565b60405180910390fd5b8173ffffffffffffffffffffffffffffffffffffffff166108fc829081150290604051600060405180830381858888f193505050501580156107ca573d6000803e3d6000fd5b507f86a5cc8fe9af9ae68fb50f62885307a7755a30cbd290131644377f0bd94a718182826040516107fc929190611268565b60405180910390a15050565b610810610bf1565b6005548210610854576040517f08c379a000000000000000000000000000000000000000000000000000000000815260040161084b906112dd565b60405180910390fd5b60046000838152602001908152602001600020604051806080016040529081600082015481526020016001820160009054906101000a900473ffffffffffffffffffffffffffffffffffffffff1673ffffffffffffffffffffffffffffffffffffffff1673ffffffffffffffffffffffffffffffffffffffff168152602001600282015481526020016003820154815250509050919050565b60008054906101000a900473ffffffffffffffffffffffffffffffffffffffff1681565b60008054906101000a900473ffffffffffffffffffffffffffffffffffffffff1673ffffffffffffffffffffffffffffffffffffffff163373ffffffffffffffffffffffffffffffffffffffff161461099f576040517f08c379a000000000000000000000000000000000000000000000000000000000815260040161099690610f9d565b60405180910390fd5b6001548111156109e4576040517f08c379a00000000000000000000000000000000000000000000000000000000081526004016109db9061136f565b60405180910390fd5b80600260008282546109f691906110fd565b925050819055508060016000828254610a0f919061138f565b925050819055507f4d074af92473714a50d24a44926bf6ce3944f7774167533a0bc560c1c2e5190981604051610a459190610c48565b60405180910390a150565b60008054906101000a900473ffffffffffffffffffffffffffffffffffffffff1673ffffffffffffffffffffffffffffffffffffffff163373ffffffffffffffffffffffffffffffffffffffff1614610ade576040517f08c379a0000000000000000000000000000000000000000000000000000000008152600401610ad590610f9d565b60405180910390fd5b600154811115610b23576040517f08c379a0000000000000000000000000000000000000000000000000000000008152600401610b1a9061140f565b60405180910390fd5b8060036000828254610b3591906110fd565b925050819055508060016000828254610b4e919061138f565b925050819055507faff123befc03bbfd1fc009736ecd279d21e5e89dc79f8f2843fc4f3716220e8981604051610b849190610c48565b60405180910390a150565b60035481565b60046020528060005260406000206000915090508060000154908060010160009054906101000a900473ffffffffffffffffffffffffffffffffffffffff16908060020154908060030154905084565b60015481565b60055481565b604051806080016040528060008152602001600073ffffffffffffffffffffffffffffffffffffffff16815260200160008152602001600081525090565b6000819050919050565b610c4281610c2f565b82525050565b6000602082019050610c5d6000830184610c39565b92915050565b600080fd5b610c7181610c2f565b8114610c7c57600080fd5b50565b600081359050610c8e81610c68565b92915050565b600073ffffffffffffffffffffffffffffffffffffffff82169050919050565b6000610cbf82610c94565b9050919050565b610ccf81610cb4565b8114610cda57600080fd5b50565b600081359050610cec81610cc6565b92915050565b600080600060608486031215610d0b57610d0a610c63565b5b6000610d1986828701610c7f565b9350506020610d2a86828701610c7f565b9250506040610d3b86828701610cdd565b9150509250925092565b600060208284031215610d5b57610d5a610c63565b5b6000610d6984828501610c7f565b91505092915050565b600060208284031215610d8857610d87610c63565b5b6000610d9684828501610cdd565b91505092915050565b6000610daa82610c94565b9050919050565b610dba81610d9f565b8114610dc557600080fd5b50565b600081359050610dd781610db1565b92915050565b60008060408385031215610df457610df3610c63565b5b6000610e0285828601610dc8565b9250506020610e1385828601610c7f565b9150509250929050565b610e2681610c2f565b82525050565b610e3581610cb4565b82525050565b608082016000820151610e516000850182610e1d565b506020820151610e646020850182610e2c565b506040820151610e776040850182610e1d565b506060820151610e8a6060850182610e1d565b50505050565b6000608082019050610ea56000830184610e3b565b92915050565b610eb481610cb4565b82525050565b6000602082019050610ecf6000830184610eab565b92915050565b6000608082019050610eea6000830187610c39565b610ef76020830186610eab565b610f046040830185610c39565b610f116060830184610c39565b95945050505050565b600082825260208201905092915050565b7f4f6e6c7920746865206f776e65722063616e20706572666f726d20746869732060008201527f616374696f6e0000000000000000000000000000000000000000000000000000602082015250565b6000610f87602683610f1a565b9150610f9282610f2b565b604082019050919050565b60006020820190508181036000830152610fb681610f7a565b9050919050565b7f53616c6520616d6f756e74206d7573742062652067726561746572207468616e60008201527f207a65726f000000000000000000000000000000000000000000000000000000602082015250565b6000611019602583610f1a565b915061102482610fbd565b604082019050919050565b600060208201905081810360008301526110488161100c565b9050919050565b60006060820190506110646000830186610c39565b6110716020830185610eab565b61107e6040830184610c39565b949350505050565b7f4e487b7100000000000000000000000000000000000000000000000000000000600052601160045260246000fd5b60006110c082610c2f565b91507fffffffffffffffffffffffffffffffffffffffffffffffffffffffffffffffff82036110f2576110f1611086565b5b600182019050919050565b600061110882610c2f565b915061111383610c2f565b925082820190508082111561112b5761112a611086565b5b92915050565b7f496e76616c696420616464726573730000000000000000000000000000000000600082015250565b6000611167600f83610f1a565b915061117282611131565b602082019050919050565b600060208201905081810360008301526111968161115a565b9050919050565b7f496e73756666696369656e742062616c616e6365000000000000000000000000600082015250565b60006111d3601483610f1a565b91506111de8261119d565b602082019050919050565b60006020820190508181036000830152611202816111c6565b9050919050565b6000819050919050565b600061122e61122961122484610c94565b611209565b610c94565b9050919050565b600061124082611213565b9050919050565b600061125282611235565b9050919050565b61126281611247565b82525050565b600060408201905061127d6000830185611259565b61128a6020830184610c39565b9392505050565b7f53616c6520646f6573206e6f7420657869737400000000000000000000000000600082015250565b60006112c7601383610f1a565b91506112d282611291565b602082019050919050565b600060208201905081810360008301526112f6816112ba565b9050919050565b7f496e73756666696369656e742066756e647320666f722064697374726962757460008201527f696f6e0000000000000000000000000000000000000000000000000000000000602082015250565b6000611359602383610f1a565b9150611364826112fd565b604082019050919050565b600060208201905081810360008301526113888161134c565b9050919050565b600061139a82610c2f565b91506113a583610c2f565b92508282039050818111156113bd576113bc611086565b5b92915050565b7f496e73756666696369656e742066756e647320666f72207061796d656e747300600082015250565b60006113f9601f83610f1a565b9150611404826113c3565b602082019050919050565b60006020820190508181036000830152611428816113ec565b905091905056fea26469706673582212206f83c5a48caa5e414d0df0e4905e5caffdfbd930a9a16789395cec8ceb3b037a64736f6c63430008150033",
  "linkReferences": {},
  "deployedLinkReferences": {}
}